:0400000076EF00F0A7
:100008004682FACF10F0FBCF11F0D9CF12F0DACF39
:1000180013F0F3CF14F0F4CF15F0F6CF16F0F7CFB6
:1000280017F0F8CF18F0F5CF19F00E01C2A91FEF9D
:1000380000F021EF00F02CEF00F0CAA926EF00F045
:1000480028EF00F02CEF00F072EC25F060EF00F0E4
:10005800F2AC31EF00F033EF00F060EF00F0C5A331
:1000680038EF00F03AEF00F050EF00F0CDA33FEF8B
:1000780000F041EF00F050EF00F002D84EEF00F032
:100088000500FA6E3850FD6E3950FE6E3A50FF6E1C
:10009800FA50120060EF00F0C5A155EF00F057EFDD
:1000A80000F060EF00F0CDA15CEF00F05EEF00F033
:1000B80060EF00F041EF00F019C0F5FF18C0F8FF3D
:1000C80017C0F7FF16C0F6FF15C0F4FF14C0F3FF02
:1000D80013C0DAFF12C0D9FF11C0FBFF10C0FAFF2E
:0800E8004692110047EF23F0DE
:100F000000884D000C4D00FC4C00863C000C40005D
:100F10007C4D00D04200D64D00CE4D00C64D00BEE7
:100F20004D00B64D00AE4D00A64D00704D00AC44D6
:100F30000012C00100696E66006E616E0025646675
:100F4000002566680025646D002566740077000042
:100F5000000E0001D26FAAC0D3F0ABC0D4F0ACC079
:100F6000D5F0ADC0D6F0D6BFBAEF07F0B8EF07F0B6
:100F7000CEEF07F0010ED26FD3C01AF0D4C01BF031
:100F8000D5C01CF0D6C01DF07CEC24F01AC0D3F004
:100F90001BC0D4F01CC0D5F01DC0D6F0000E00015F
:100FA000D86F000ED76F3BC0C2F03CC0C3F0D25127
:100FB000D8B4DDEF07F0DFEF07F0F3EF07F0D25121
:100FC000D8A4E5EF07F0E7EF07F0EDEF07F0000E2C
:100FD000B86F2B0EB76FF1EF07F0000EB86F2D0E44
:100FE000B76FB7C0D2F0D3C01AF0D4C01BF0D5C0D1
:100FF0001CF0D6C01DF0C4EC1DF01A041B10D8A4C0
:1010000004EF08F006EF08F039EF08F00001D251C4
:10101000D8B40DEF08F00FEF08F018EF08F0D2C0C9
:101020002AF1C207D8A0C307000ED86F010ED76FF0
:101030002A0ED7251A6E010ED8211B6E350E1C6E96
:101040000F0E1D6EB6EC23F00001FD0EC227FF0E41
:10105000C323A8C060F0A9C061F02A0E626F010E20
:10106000636FC2C064F0C3C065F029EC21F0BCEF2F
:101070000CF0D3C01AF0D4C01BF0D5C01CF0D6C001
:101080001DF0C4EC1DF01A501B10D8A44AEF08F054
:101090004CEF08F07FEF08F00001D251D8B453EFC5
:1010A00008F055EF08F05EEF08F0D2C02AF1C20751
:1010B000D8A0C307000ED86F010ED76F2A0ED72510
:1010C0001A6E010ED8211B6E390E1C6E0F0E1D6E8E
:1010D000B6EC23F00001FD0EC227FF0EC323A8C00B
:1010E00060F0A9C061F02A0E626F010E636FC2C08A
:1010F00064F0C3C065F029EC21F0BCEF0CF0000EE9
:101100000001D96F000EDA6F800EDB6F3F0EDC6FCF
:10111000000EC16F000EC06FD3C01AF0D4C01BF018
:10112000D5C01CF0D6C01DF0000E1E6E000E1F6E46
:10113000000E206E000E216EB1EC1FF0D8B0A3EFB0
:1011400008F0A5EF08F086EF09F0B2EF08F0C4C090
:10115000D9F0C5C0DAF0C6C0DBF0C7C0DCF00001D2
:10116000C04BC12BD9C075F0DAC076F0DBC077F088
:10117000DCC078F0000E0001796F000E7A6F200E4F
:101180007B6F410E7C6F25EC12F075C0C4F076C009
:10119000C5F077C0C6F078C0C7F00001C451D35D78
:1011A0001A6EC551D4591B6EC651D5591C6EC75104
:1011B000D6591D6EC1EC22F01DBEEAEF08F01D509D
:1011C0001C101B1009E1020E1A5CD8A0EAEF08F00F
:1011D000ECEF08F0A7EF08F0C4C08EF0C5C08FF0A8
:1011E000C6C090F0C7C091F0D3C092F0D4C093F0C5
:1011F000D5C094F0D6C095F041EC1DF00001D8A008
:1012000004EF09F006EF09F0A7EF08F0D951D35D1C
:101210001A6EDA51D4591B6EDB51D5591C6EDC5154
:10122000D6591D6EC1EC22F01DBE24EF09F01D50F1
:101230001C101B1007E1020E1A5CD8B022EF09F057
:1012400024EF09F06CEF09F0D9C0D3F0DAC0D4F084
:10125000DBC0D5F0DCC0D6F086EF09F0D9C060F075
:10126000DAC061F0DBC062F0DCC063F0000E646FD6
:10127000000E656F200E666F410E676F3BEC14F039
:1012800060C0D9F061C0DAF062C0DBF063C0DCF0AE
:101290000001C007D8A0C107D951D35D1A6EDA5139
:1012A000D4591B6EDB51D5591C6EDC51D6591D6EBD
:1012B000C1EC22F01DBE6AEF09F01D501C101B107E
:1012C00007E1020E1A5CD8B068EF09F06AEF09F086
:1012D0006CEF09F024EF09F0D3C08EF0D4C08FF08A
:1012E000D5C090F0D6C091F0D9C092F0DAC093F09A
:1012F000DBC094F0DCC095F041EC1DF00001D8A0FB
:1013000084EF09F086EF09F02EEF09F0AEC0BAF0D5
:10131000BAC0BBF03EBE8FEF09F091EF09F097EF36
:1013200009F03DC0B3F03EC0B4F09CEF09F0000EF0
:101330000001B46F060EB36FB3C0BEF0B4C0BFF00F
:101340000001BE4BBF2B660EBB19D8A4AAEF09F053
:10135000ACEF09F0CCEF09F0C1BFB3EF09F0B1EF8A
:1013600009F0BFEF09F0000ED96F000EDA6F800EA2
:10137000DB6F3F0EDC6F000EC16F000EC06F670E9B
:10138000BA19D8B4C6EF09F0C8EF09F0CCEF09F0EC
:10139000C051BE27C151BF23000EC96F000EC86FD8
:1013A000D3C0CAF0D4C0CBF0D5C0CCF0D6C0CDF0FD
:1013B000D9C0C4F0DAC0C5F0DBC0C6F0DCC0C7F0ED
:1013C0005EEF0AF0CAC060F0CBC061F0CCC062F042
:1013D000CDC063F0D9C064F0DAC065F0DBC066F060
:1013E000DCC067F03BEC14F060C075F061C076F0D3
:1013F00062C077F063C078F0DAEC18F075C0CEF018
:1014000076C0CFF077C0D0F078C0D1F0CEC09EF0DB
:10141000CFC09FF0D0C0A0F0D1C0A1F0BDEC1CF0B7
:101420009EC0BCF09FC0BDF0CAC09EF0CBC09FF074
:10143000CCC0A0F0CDC0A1F0CEC079F0CFC07AF082
:10144000D0C07BF0D1C07CF0D9C075F0DAC076F0A6
:10145000DBC077F0DCC078F025EC12F075C0A2F0AC
:1014600076C0A3F077C0A4F078C0A5F092EC23F08A
:101470009EC0CAF09FC0CBF0A0C0CCF0A1C0CDF000
:10148000D9C060F0DAC061F0DBC062F0DCC063F0AC
:10149000000E0001646F000E656F200E666F410E36
:1014A000676F3BEC14F060C0D9F061C0DAF062C045
:1014B000DBF063C0DCF00001C84BC92BBE51C85D36
:1014C000C951800AAF6FBF51800AAF59D8A06BEFE6
:1014D0000AF06DEF0AF0E2EF09F0D9C075F0DAC05A
:1014E00076F0DBC077F0DCC078F0000E796F000E8C
:1014F0007A6FA00E7B6F400E7C6F25EC12F075C0EA
:10150000CEF076C0CFF077C0D0F078C0D1F0CAC0AE
:101510008EF0CBC08FF0CCC090F0CDC091F0CEC09B
:1015200092F0CFC093F0D0C094F0D1C095F041ECD0
:101530001DF00001D8B09FEF0AF0A1EF0AF0ABEF69
:101540000AF0000ECE6F000ECF6F000ED06F000EAF
:10155000D16FD4EF0AF0CAC01AF0CBC01BF0CCC0D8
:101560001CF0CDC01DF0CEC01EF0CFC01FF0D0C00B
:1015700020F0D1C021F0B1EC1FF0D8A0C2EF0AF0EA
:10158000C4EF0AF0D4EF0AF00001BCB1CAEF0AF0D0
:10159000CCEF0AF0D4EF0AF0000ECE6F000ECF6F42
:1015A000000ED06F000ED16FD3C08EF0D4C08FF07C
:1015B000D5C090F0D6C091F0CEC092F0CFC093F0DD
:1015C000D0C094F0D1C095F0C4EC0FF08EC0CAF03A
:1015D0008FC0CBF090C0CCF091C0CDF0CAC08EF0DF
:1015E000CBC08FF0CCC090F0CDC091F0000E0001C8
:1015F000796F000E7A6F200E7B6F410E7C6FC4C036
:1016000075F0C5C076F0C6C077F0C7C078F025EC9D
:1016100012F075C092F076C093F077C094F078C065
:1016200095F041EC1DF00001D8A019EF0BF01BEF75
:101630000BF043EF0BF0C04BC12BC4C075F0C5C01D
:1016400076F0C6C077F0C7C078F0000E796F000E54
:101650007A6F200E7B6F410E7C6F25EC12F075C007
:10166000C4F076C0C5F077C0C6F078C0C7F0660E8B
:101670000001BB19D8A43FEF0BF041EF0BF043EF93
:101680000BF0BE4BBF2BC4C0D9F0C5C0DAF0C6C04A
:10169000DBF0C7C0DCF0C0C0B1F0C1C0B2F0000EDA
:1016A000B96F000EB66F000EB56F000EC96F000E59
:1016B000C86F41EF0CF0CAC060F0CBC061F0CCC085
:1016C00062F0CDC063F0D9C064F0DAC065F0DBC071
:1016D00066F0DCC067F03BEC14F060C075F061C0F0
:1016E00076F062C077F063C078F0DAEC18F075C07D
:1016F000CEF076C0CFF077C0D0F078C0D1F0CEC0B9
:101700009EF0CFC09FF0D0C0A0F0D1C0A1F0BDEC42
:101710001CF000019FBF98EF0BF09F5107E10A0EEC
:101720009E5DD8B096EF0BF098EF0BF0A8EF0BF0A2
:10173000CEC09EF0CFC09FF0D0C0A0F0D1C0A1F02D
:10174000BDEC1CF09EC0BCF09FC0BDF0ACEF0BF038
:10175000000EBD6F090EBC6F0001B951D8A4B3EFE4
:101760000BF0B5EF0BF0DDEF0BF0B2BFBCEF0BF001
:10177000BAEF0BF0DDEF0BF02A0ED725D96E010E74
:10178000D821DA6E2E0EDF6ED74BD82BC207D8A029
:10179000C307010EB96FDDEF0BF02A0ED725D96E06
:1017A000010ED821DA6E300EDF6ED74BD82BC20770
:1017B000D8A0C307B507D8A0B607B551B611D8A4AD
:1017C000E4EF0BF0E6EF0BF0CDEF0BF02A0ED72590
:1017D000D96E010ED821DA6EBC51300FDF6ED74BB7
:1017E000D82BC207D8A0C307CAC09EF0CBC09FF0B9
:1017F000CCC0A0F0CDC0A1F0CEC079F0CFC07AF0BF
:10180000D0C07BF0D1C07CF0D9C075F0DAC076F0E2
:10181000DBC077F0DCC078F025EC12F075C0A2F0E8
:1018200076C0A3F077C0A4F078C0A5F092EC23F0C6
:101830009EC0CAF09FC0CBF0A0C0CCF0A1C0CDF03C
:10184000D9C060F0DAC061F0DBC062F0DCC063F0E8
:10185000000E0001646F000E656F200E666F410E72
:10186000676F3BEC14F060C0D9F061C0DAF062C081
:10187000DBF063C0DCF00001B107D8A0B207C84BB1
:10188000C92BBE51C85DC951800AAF6FBF51800AD4
:10189000AF59D8B04EEF0CF050EF0CF05EEF0CF0FB
:1018A000D8BF5CEF0CF0D85109E14B0ED75DD8A042
:1018B0005CEF0CF05EEF0CF05BEF0BF0000EC96F0D
:1018C0004F0EC86F2A0EC825D96E010EC921DA6ED7
:1018D000000EDF6E2A0EAF6F010EB06FD751AF5FF3
:1018E000D851B05BC851AF251A6EC951B0211B6EDB
:1018F0002A0E1C6E010E1D6ED7C01EF0D8C01FF040
:101900001FEC23F00001D751C85DD76FD851C959DA
:10191000D86FD251D8A48FEF0CF092EF0CF0010EDB
:1019200093EF0CF0000EC86FC96BD251D8B49BEF87
:101930000CF09DEF0CF0A8EF0CF0D707D8A0D8075B
:101940002A0ED725D96E010ED821DA6ED2C0DFFF5C
:10195000C851C25FC951C35BA8C060F0A9C061F0A3
:101960002A0ED725626F010ED821636FC2C064F0C2
:10197000C3C065F029EC21F012009BEC25F084989F
:1019800054EC26F0F5EC25F0000E5AEC1FF0F28E28
:10199000F28CBA0E1A6E480E1B6E000E1C6E95EC81
:1019A00026F06DEC23F06AEC26F0400E0101926FF8
:1019B000000E8D6F010E8E6F400E916F020E8F6FB5
:1019C000030E906F8396839A0E0E256E500E266E30
:1019D000400EE5EC21F00F0E256E010E266E400E36
:1019E000E5EC21F00D0E01018B6FFB0EE82EFED70A
:1019F0008B2FFCD700D04D0E0101856F0F0E866F27
:101A000087EC25F0060E01018C6F130E8B6FAD0E67
:101A1000E82EFED78B2FFCD78C2FFAD700D083B6B9
:101A200014EF0DF017EF0DF0010E18EF0DF0000E92
:101A3000FF0A01018B6F8B478B478B4783508B19B4
:101A4000F70B8B19836E8DC125F09251A7EC21F015
:101A50000001FC6F8EC125F001019251A7EC21F02D
:101A60000001FB6FFC51FBC08BF101018C6B8BC142
:101A70008CF18B6B8B110001F56F01018C51000112
:101A8000F66F000E796F000E7A6F250E7B6F430E96
:101A90007C6F000E646F000E656F800E666F470EE0
:101AA000676FF5C01AF0F6C01BF01C6A1D6A000EC5
:101AB000E5EC19F01AC060F01BC061F01CC062F0C8
:101AC0001DC063F03BEC14F060C075F061C076F0AF
:101AD00062C077F063C078F025EC12F075C08EF02C
:101AE00076C08FF077C090F078C091F0000E0001C2
:101AF000926F000E936F200E946FC20E956FC4EC20
:101B00000FF08EC0EFF08FC0F0F090C0F1F091C0F8
:101B1000F2F0490E0101856F0F0E866FEFC087F15D
:101B2000F0C088F1F1C089F1F2C08AF187EC25F0AC
:101B30000001F551F611D8B4A0EF0DF0A2EF0DF0B1
:101B400009EF0EF083BAA7EF0DF0AAEF0DF0010E2A
:101B5000ABEF0DF0000EFF0A01018B6F8B3B8B4743
:101B600083508B19DF0B8B19836E820E01018B6FF3
:101B7000DD0EE82EFED78B2FFCD700D083BAC3EF43
:101B80000DF0C6EF0DF0010EC7EF0DF0000EFF0ACD
:101B900001018B6F8B3B8B4783508B19DF0B8B19AC
:101BA000836E820E01018B6FDD0EE82EFED78B2F28
:101BB000FCD700D083BADFEF0DF0E2EF0DF0010E9D
:101BC000E3EF0DF0000EFF0A01018B6F8B3B8B479B
:101BD00083508B19DF0B8B19836E820E01018B6F83
:101BE000DD0EE82EFED78B2FFCD700D083BAFBEF9B
:101BF0000DF0FEEF0DF0010EFFEF0DF0000EFF0AED
:101C000001018B6F8B3B8B4783508B19DF0B8B193B
:101C1000836E0D0E01018B6FFB0EE82EFED78B2F0E
:101C2000FCD700D08FC125F001019151A7EC21F024
:101C30000001FA6F90C125F001019151A7EC21F04C
:101C40000001F96FFA51F9C08BF101018C6B8BC166
:101C50008CF18B6B8B110001F36F01018C51000132
:101C6000F46F000E646F000E656F800E666F470E96
:101C7000676FF3C01AF0F4C01BF01C6A1D6A000EF7
:101C8000E5EC19F01AC060F01BC061F01CC062F0F6
:101C90001DC063F03BEC14F060C075F061C076F0DD
:101CA00062C077F063C078F0000E0001796F000E1B
:101CB0007A6FC80E7B6F420E7C6F25EC12F075C0F8
:101CC00034F076C035F077C036F078C037F0410E8A
:101CD0000101856F0F0E866F34C087F135C088F122
:101CE00036C089F137C08AF187EC25F00D0E01016D
:101CF0008B6FFB0EE82EFED78B2FFCD700D0000198
:101D0000F351F411D8B487EF0EF089EF0EF0F0EF35
:101D10000EF083BA8EEF0EF091EF0EF0010E92EFFF
:101D20000EF0000EFF0A01018B6F8B3B8B47835037
:101D30008B19DF0B8B19836E820E01018B6FDD0E09
:101D4000E82EFED78B2FFCD700D083BAAAEF0EF077
:101D5000ADEF0EF0010EAEEF0EF0000EFF0A010126
:101D60008B6F8B3B8B4783508B19DF0B8B19836EEB
:101D7000820E01018B6FDD0EE82EFED78B2FFCD774
:101D800000D083BAC6EF0EF0C9EF0EF0010ECAEF15
:101D90000EF0000EFF0A01018B6F8B3B8B478350C7
:101DA0008B19DF0B8B19836E820E01018B6FDD0E99
:101DB000E82EFED78B2FFCD700D083BAE2EF0EF0CF
:101DC000E5EF0EF0010EE6EF0EF0000EFF0A010146
:101DD0008B6F8B3B8B4783508B19DF0B8B19836E7B
:101DE000450E0101856F0F0E866FFDC087F1886B70
:101DF00087EC25F05FEC26F00009D8B402EF0FF075
:101E000004EF0FF037EF0FF05DEC25F00001FE6FEF
:101E100083BA0DEF0FF010EF0FF0010E11EF0FF07E
:101E2000000EFF0A01018B6F8B3B8B4783508B1990
:101E3000DF0B8B19836E0D0E01018B6FFB0EE82EED
:101E4000FED78B2FFCD700D083BA29EF0FF02CEFF1
:101E50000FF0010E2DEF0FF0000EFF0A01018B6F46
:101E60008B3B8B4783508B19DF0B8B19836E640E72
:101E70000001FE653EEF0FF040EF0FF07DEF0FF039
:101E8000000E926F000E936FA00E946F410E956F2F
:101E9000000E796F000E7A6F000E7B6F400E7C6F24
:101EA000EFC075F0F0C076F0F1C077F0F2C078F0D6
:101EB00025EC12F075C08EF076C08FF077C090F0F0
:101EC00078C091F0C4EC0FF08EC09EF08FC09FF0F0
:101ED00090C0A0F091C0A1F0BDEC1CF000019E519B
:101EE000F86F640EF86577EF0FF079EF0FF07FEF82
:101EF0000FF0640EF86F7FEF0FF0FEC0F8F0FEC039
:101F0000F8F0F8511A6E1B6A1C6A1D6AFF0E1E6EED
:101F1000FF0E1F6E000E206E000E216E8CEC22F064
:101F20001AC060F01BC061F01CC062F01DC063F0FD
:101F3000640E0001646F000E656F000E666F000E88
:101F4000676F36EC1CF060C068F061C069F098EC17
:101F500024F03D0E0101856F0F0E866FF8C087F1EA
:101F6000886B87EC25F0030E01018C6F8A0E8B6F56
:101F7000550EE82EFED78B2FFCD78C2FFAD700D02A
:101F80000FEF0DF076EF00F000019151800B9A6F8A
:101F9000915191259C6F90AFD0EF0FF0D2EF0FF0E1
:101FA000D3EF0FF09C819C51D8B4D9EF0FF0DBEF49
:101FB0000FF0F0EF0FF09C29D8A4E1EF0FF0E3EF62
:101FC0000FF0EBEF0FF0000E8E6F000E8F6F000E14
:101FD000906F000E916F908F000E916FF8EF0FF0E1
:101FE000000E8E6F000E8F6F000E906F000E916FBF
:101FF0009551800B9B6F9A519B19D8B402EF10F04A
:1020000004EF10F005EF10F09A8D955195259B6F18
:1020100094AF0DEF10F00FEF10F010EF10F09B8168
:102020009B51D8B416EF10F018EF10F02DEF10F010
:102030009B29D8A41EEF10F020EF10F028EF10F02D
:10204000000E926F000E936F000E946F000E956F4E
:10205000948F000E956F35EF10F0000E926F000E0A
:10206000936F000E946F000E956F9C519B5DD8B0DE
:102070003CEF10F03EEF10F065EF10F09AAD43EF3B
:1020800010F045EF10F047EF10F0800E9A1B9CC047
:102090009DF09BC09CF09DC09BF08EC09DF092C0B7
:1020A0008EF09DC092F08FC09DF093C08FF09DC0C8
:1020B00093F090C09DF094C090F09DC094F091C0BA
:1020C0009DF095C091F09DC095F0000E9D6F9C51C4
:1020D0009BC096F0976B965F000E975B97BF7AEF69
:1020E00010F0975109E11A0E965DD8A07AEF10F022
:1020F0007CEF10F0B3EF10F08E518F119011911111
:10210000D8A485EF10F088EF10F0010E89EF10F0E1
:10211000000E9D6F000E8E6F000E8F6F000E906F81
:10212000000E916F9BC09CF0BCEF10F09DA19BEF47
:1021300010F09DEF10F0A3EF10F0D8909D31010941
:102140009D6FA5EF10F0D8909D338EA1AAEF10F0EF
:10215000ACEF10F0ADEF10F09D8F913591339033CF
:102160008F338E339C2B9B519C5DD8A0BAEF10F01F
:10217000BCEF10F096EF10F09ABDC1EF10F0C3EF76
:1021800010F003EF11F09C51D8A4C9EF10F0CBEF81
:1021900010F0D5EF10F0000E8E6F000E8F6F000E56
:1021A000906F000E916F24EF12F092518E27935191
:1021B0008F23945190239551912391A1E2EF10F038
:1021C000E4EF10F090EF11F09DA1E9EF10F0EBEFCC
:1021D00010F0F1EF10F0D8909D3101099D6FF3EFF1
:1021E00010F0D8909D338EA1F8EF10F0FAEF10F0B8
:1021F000FBEF10F09D8F9135913390338F338E33F9
:102200009C2B90EF11F092518E5D93518F59945108
:1022100090599151800A966F9551800A9659D8B07D
:1022200014EF11F016EF11F041EF11F08E51925DA5
:10223000966F8F519359976F90519459986F915110
:102240009559996FFF0E96258E6FFF0E97218F6F10
:10225000FF0E9821906FFF0E9921916F800E9A1BAF
:102260009D6D9D51D8A437EF11F039EF11F049EF72
:1022700011F0010E8E27000E8F239023912349EF3A
:1022800011F092518E5F93518F5B9451905B9551F9
:10229000915B8E518F1190119111D8A452EF11F0D2
:1022A00054EF11F089EF11F09D51D8A45AEF11F0BD
:1022B0005CEF11F089EF11F0000E8E6F000E8F6F42
:1022C000000E906F000E916F24EF12F0D8908E37B1
:1022D0008F37903791379DAF70EF11F072EF11F09B
:1022E00073EF11F08E819DA178EF11F07AEF11F06C
:1022F0007EEF11F0D8809D3780EF11F0D8909D3798
:102300009C51D8B486EF11F088EF11F089EF11F0ED
:102310009C0790AF8EEF11F090EF11F066EF11F087
:10232000000E9B6F9DAF97EF11F099EF11F0B1EF99
:1023300011F09DC096F07F0E9617D8B4A2EF11F061
:10234000A4EF11F0A8EF11F0010E9B6FB1EF11F0A7
:102350008EA1ADEF11F0AFEF11F0B1EF11F0A4EFDE
:1023600011F09B51D8B4B7EF11F0B9EF11F0E4EFD1
:1023700011F0010E8E27000E8F239023912391A13F
:10238000C4EF11F0C6EF11F0E4EF11F08EC096F03B
:102390008FC097F090C098F091C099F0993599331B
:1023A00098339733963396C08EF097C08FF098C0CD
:1023B00090F099C091F09C29D8B4E1EF11F0E3EFCF
:1023C00011F0E4EF11F09C2B9C29D8B4EAEF11F046
:1023D000ECEF11F0F4EF11F09C51D8A4F2EF11F0F2
:1023E000F4EF11F006EF12F0000E8E6F000E8F6FFB
:1023F000000E906F000E916F9C51D8A402EF12F066
:1024000004EF12F006EF12F0000E9A6F9CA10BEF92
:1024100012F00DEF12F010EF12F0908F11EF12F09A
:10242000909FD8909C31916F9AAF19EF12F01BEFEB
:1024300012F01CEF12F0918F8EC08EF08FC08FF0D3
:1024400090C090F091C091F0120000017851800B83
:10245000816F78517825876F77AF31EF12F033EFC6
:1024600012F034EF12F087818751D8B43AEF12F0AE
:102470003CEF12F04FEF12F08729D8A442EF12F090
:1024800044EF12F04CEF12F0000E756F000E766FF5
:10249000000E776F000E786F778F57EF12F0000EF7
:1024A000756F000E766F000E776F000E786F7C519F
:1024B000800B811B7C517C25826F7BAF62EF12F019
:1024C00064EF12F065EF12F082818251D8B46BEFA5
:1024D00012F06DEF12F080EF12F08229D8A473EFA2
:1024E00012F075EF12F07DEF12F0000E796F000E12
:1024F0007A6F000E7B6F000E7C6F7B8F88EF12F07F
:10250000000E796F000E7A6F000E7B6F000E7C6FED
:102510008251D8B48EEF12F090EF12F098EF12F0D3
:102520008751D8A496EF12F098EF12F0A2EF12F0B4
:10253000000E756F000E766F000E776F000E786FCD
:102540003AEF14F07B517503F3CF8CF0F4CF8DF09C
:102550008C51836F846B856B866B8D51886F896B13
:102560008A6B8B6B7A517603F3CF8CF0F4CF8DF0BE
:102570008C518327000E8423852386238D51882741
:10258000000E89238A238B2379517703F3CF8CF0B4
:10259000F4CF8DF08C518327000E8423852386236E
:1025A0008D518827000E89238A238B2385C086F0CE
:1025B00084C085F083C084F0836B79517603F3CFB8
:1025C0008CF0F4CF8DF08C5183278D518423000E35
:1025D0008523000E86237A517503F3CF8CF0F4CF58
:1025E0008DF08C5183278D518423000E8523000E9E
:1025F000862385C086F084C085F083C084F0836B19
:1026000079517503F3CF8CF0F4CF8DF08C51832783
:102610008D518423000E8523000E86237B51760383
:10262000F3CF8CF0F4CF8DF08C5188278D51892316
:10263000000E8A23000E8B237A517703F3CF8CF0A0
:10264000F4CF8DF08C5188278D518923000E8A2379
:10265000000E8B237B517703F3CF8CF0F4CF8DF0FA
:102660008C517D6F8D517E6F7F6B806B7FC080F052
:102670007EC07FF07DC07EF07D6B7D5188277E51CE
:1026800089237F518A2380518B2383C07DF084C0AE
:102690007EF085C07FF086C080F0190E55EF13F0F4
:1026A000D89080337F337E337D33E82E50EF13F0A4
:1026B0007D5188277E5189237F518A2380518B2326
:1026C00085C086F084C085F083C084F0836B82511E
:1026D00087C07DF07E6B7D27000E7E23820E7D25D8
:1026E0008C6FFF0E7E218D6F8BEF13F0D8908837A3
:1026F00089378A378B3786AF80EF13F082EF13F07C
:1027000083EF13F08881D8908337843785378637F5
:102710008C07D8A08D078AAF90EF13F092EF13F0DB
:1027200076EF13F0000E826F86AF99EF13F09BEFF8
:1027300013F0BFEF13F0FF0E83157D6FFF0E8415AE
:102740007E6FFF0E85157F6F7F0E8615806F7D5122
:102750007E117F118011D8B4B0EF13F0B2EF13F0F7
:10276000B6EF13F0010E826FBFEF13F088A1BBEF3D
:1027700013F0BDEF13F0BFEF13F0B2EF13F082517F
:10278000D8B4C5EF13F0C7EF13F0EBEF13F0010E61
:102790008827000E89238A238B238BA1D2EF13F085
:1027A000D4EF13F0EBEF13F088C07DF089C07EF01A
:1027B0008AC07FF08BC080F0803580337F337E33DA
:1027C0007D337DC088F07EC089F07FC08AF080C0F4
:1027D0008BF08C4B8D2B8DBFF6EF13F08D5108E1F4
:1027E0008C29D8A0F6EF13F0F8EF13F002EF14F0F5
:1027F000000E886F000E896F800E8A6F7F0E8B6FC0
:1028000030EF14F08DBF0FEF14F08D5106E18C0501
:10281000D8B00DEF14F00FEF14F01BEF14F0000E12
:10282000886F000E896F000E8A6F000E8B6F000E8E
:10283000816F30EF14F08CC087F0FF0E8817FF0E09
:1028400089177F0E8A17000E8B1787A12AEF14F0C5
:102850002CEF14F02DEF14F08A8FD89087318B6F06
:1028600081518B1388C075F089C076F08AC077F0EB
:102870008BC078F0120000016351800B6C6F6351C4
:102880006325736F62AF47EF14F049EF14F04AEF1E
:1028900014F073817351D8B450EF14F052EF14F068
:1028A00067EF14F07329D8A458EF14F05AEF14F01E
:1028B00062EF14F0000E606F000E616F000E626F29
:1028C000000E636F628F000E636F6FEF14F0000EE7
:1028D000606F000E616F000E626F000E636F6751D4
:1028E000800B6C1B67516725746F66AF7AEF14F02D
:1028F0007CEF14F07DEF14F074817451D8B483EF41
:1029000014F085EF14F09AEF14F07429D8A48BEF2B
:1029100014F08DEF14F095EF14F0000E646F000EBC
:10292000656F000E666F000E676F668F000E676F33
:10293000A2EF14F0000E646F000E656F000E666F5C
:10294000000E676F6451651166116711D8A4ABEF73
:1029500014F0ADEF14F0C5EF14F0000E606F000E30
:10296000616F000E626F000E636F800E62137F0E48
:1029700063136C51631360C060F061C061F062C0AA
:1029800062F063C063F008EF16F07351D8A4CBEF88
:1029900014F0CDEF14F0D7EF14F0000E606F000EBE
:1029A000616F000E626F000E636F08EF16F07451D6
:1029B00073C028F0296A285E000E295A7F0E282449
:1029C0006D6F000E29206E6F60C068F061C069F005
:1029D00062C06AF063C06BF0000E606F000E616F42
:1029E000000E626F000E636F000E6F6F000E706F4F
:1029F000000E716F000E726F000E746F38EF15F0DD
:102A00007451D8B406EF15F008EF15F01FEF15F06C
:102A1000D890683769376A376B37D8906037613735
:102A20006237633772AF17EF15F019EF15F01AEF31
:102A300015F06081D8906F377037713772376451F5
:102A4000685D6551695966516A5967516B59D8A0DB
:102A50002CEF15F02EEF15F037EF15F0728D645155
:102A6000685F6551695B66516A5B67516B5B742B8C
:102A7000190E74653EEF15F040EF15F000EF15F0FC
:102A8000685169116A116B11D8B449EF15F04BEF19
:102A900015F063EF15F06F8163EF15F0D890603794
:102AA00061376237633772AF58EF15F05AEF15F0A0
:102AB0005BEF15F06081D8906F37703771377237E0
:102AC0006D07D8A06E0762AF68EF15F06AEF15F0DA
:102AD0004EEF15F0000E746F72AF71EF15F073EFDB
:102AE00015F097EF15F0FF0E6F15286EFF0E70159D
:102AF000296EFF0E71152A6E7F0E72152B6E2850EF
:102B000029102A102B10D8B488EF15F08AEF15F091
:102B10008EEF15F0010E746F97EF15F060A193EF33
:102B200015F095EF15F097EF15F08AEF15F0745149
:102B3000D8B49DEF15F09FEF15F0C3EF15F0010E1F
:102B40006027000E61236223632363A1AAEF15F0BF
:102B5000ACEF15F0C3EF15F060C028F061C029F0AC
:102B600062C02AF063C02BF02B342B322A32293278
:102B7000283228C060F029C061F02AC062F02BC062
:102B800063F06D4B6E2B6EBFCEEF15F06E5108E10A
:102B90006D29D8A0CEEF15F0D0EF15F0DBEF15F0D2
:102BA000000E6E6F6D69000E606F000E616F000E9B
:102BB000626F000E636F6EBFE8EF15F06E5106E1B5
:102BC0006D05D8B0E6EF15F0E8EF15F0F6EF15F06B
:102BD000000E6E6F000E6D6F000E606F000E616F65
:102BE000000E626F000E636F000E6C6F6DC073F0AD
:102BF00073A1FDEF15F0FFEF15F002EF16F0628FF5
:102C000003EF16F0629FD8907331636FB9EF14F041
:102C10001200DFC0D9FFE0C0DAFFDECFF6FFDDCF64
:102C2000F7FF000EF86E0800F550250AD8A41BEF38
:102C300016F01DEF16F082EF17F0DFC0D9FFE0C0ED
:102C4000DAFFDE2A000EDD22000E3C6E000E3B6E27
:102C50003BC0F7F03D683E68DFC0D9FFE0C0DAFF57
:102C6000DECF83F1DDCF84F183C1F6FF84C1F7FFAE
:102C7000000EF86E0800F550640AD8B442EF16F062
:102C800044EF16F054EF16F083C1F6FF84C1F7FF4E
:102C9000000EF86E0800F550690AD8A452EF16F03D
:102CA00054EF16F09BEF16F0E1C0D9FFE2C0DAFF57
:102CB000DFCFE3F0020EDE26DFCFE4F0000EDD22F0
:102CC000E3C0D9FFE4C0DAFFDECF7AF1DDCF7BF1DC
:102CD0000101000E7BBFFF0E7C6F7D6F7E6F7F6FEB
:102CE000806F816F010E83250001E36F000E0101EB
:102CF00084210001E46FDFC0D9FFE0C0DAFFE3C048
:102D0000DEFFE4C0DDFFDDC06BF0DEC06CF07AC139
:102D10006DF07BC16EF07CC16FF07DC170F07EC143
:102D200071F07FC172F080C173F081C174F099ECD1
:102D300017F098EF17F0DFC0D9FFE0C0DAFFDECF61
:102D400083F1DDCF84F183C1F6FF84C1F7FF000E6C
:102D5000F86E0800F5CF82F1BDEF16F00101834B4C
:102D6000842BD8EF16F06C0E0101826FD8EF16F0AD
:102D7000000E0101826FD8EF16F0010182510001AF
:102D8000E36FE46BE451000AD8B4C9EF16F0B8EF72
:102D900016F0E3514C0AD8B4AEEF16F02A0AD8B4B4
:102DA000B3EF16F00A0AD8B4AEEF16F0B8EF16F08B
:102DB00083C1F6FF84C1F7FF000EF86E0800F550DE
:102DC000660AD8A4E6EF16F0E8EF16F079EF17F0F0
:102DD0001EEF17F0E1C0D9FFE2C0DAFFDFCFE3F06A
:102DE000040EDE26DFCFE4F0000EDD22E3C0D9FFC3
:102DF000E4C0DAFFDECF7AF1DECF7BF1DECF7CF10B
:102E0000DECF7DF134EF17F0E1C0D9FFE2C0DAFF89
:102E1000DFCFE3F0040EDE26DFCFE4F0000EDD228C
:102E2000E3C0D9FFE4C0DAFFDECF7AF1DECF7BF179
:102E3000DECF7CF1DECF7DF134EF17F0825100015F
:102E4000E36FE46BE451000AD8B429EF17F034EFD4
:102E500017F0E3514C0AD8B404EF17F0200AD8B4A5
:102E6000EAEF16F034EF17F0010E0101832500019F
:102E7000E36F000E010184210001E46FDFC0D9FF80
:102E8000E0C0DAFFE3C0DEFFE4C0DDFF61EF17F072
:102E9000DDC0A8F0DEC0A9F07AC1AAF07BC1ABF01A
:102EA0007CC1ACF07DC1ADF083C1F6FF84C1F7FFFA
:102EB000000EF86E0800F5CFAEF0A8EC07F098EF22
:102EC00017F083C1F6FF84C1F7FF000EF86E08000B
:102ED000F550E36FE46BE451000AD8B472EF17F0D9
:102EE00079EF17F0E351660AD8B448EF17F079EF9D
:102EF00017F0DFC0D9FFE0C0DAFFDE2A000EDD22C6
:102F000098EF17F0DFC0D9FFE0C0DAFFDECFF6FFA1
:102F1000DDCFF7FF000EF86E0800F5501C6E1D6A3D
:102F2000DDC01EF0DEC01FF05AEC20F079EF17F084
:102F300012006DC083F06EC084F06FC085F070C069
:102F400086F071C087F072C088F073C089F074C0D9
:102F50008AF000018ABFAFEF17F0B2EF17F0010E51
:102F6000B3EF17F0000E8B6F8B51D8B4BAEF17F098
:102F7000BCEF17F0CCEF17F08A1F891F881F871F3F
:102F8000861F851F841F836D000E8423852386235F
:102F90008723882389238A233EBED9EF17F03E502A
:102FA00006E13D04D8B0D7EF17F0D9EF17F0DFEF07
:102FB00017F0000E806F010E7F6FE3EF17F03DC03A
:102FC0007FF03EC080F03BC081F03CC082F08B516E
:102FD000D8B4EDEF17F0EFEF17F006EF18F0810718
:102FE000D8A082078B51D8A4F8EF17F0FAEF17F0AA
:102FF00000EF18F0000E7E6F2B0E7D6F04EF18F0BF
:10300000000E7E6F2D0E7D6F7DC08BF0000E8D6FDC
:103010004F0E8C6F000E0101796F8CEF18F08C074A
:10302000D8A08D072A0E8C25D96E010E8D21DA6E5F
:1030300083C01AF084C01BF085C01CF086C01DF050
:1030400087C01EF088C01FF089C020F08AC021F020
:103050000A0E226E000E236E000E246E000E256EE8
:10306000000E266E000E276E000E286E000E296ED2
:1030700084EC1BF01AC075F01BC076F01CC077F012
:103080001DC078F01EC079F01FC07AF020C07BF020
:1030900021C07CF075C060F076C061F01CEC24F0BB
:1030A00000016051300FDF6E7F07D8A080078107D5
:1030B000D8A0820783C01AF084C01BF085C01CF022
:1030C00086C01DF087C01EF088C01FF089C020F0A8
:1030D0008AC021F00A0E226E000E236E000E246EAE
:1030E000000E256E000E266E000E276E000E286E56
:1030F000000E296EBFEC1AF01AC083F01BC084F0DA
:103100001CC085F01DC086F01EC087F01FC088F06F
:1031100020C089F021C08AF000018DBF98EF18F01F
:103120008D5108E18C05D8A098EF18F09AEF18F0AF
:10313000B6EF18F08351841185118611871188111B
:1031400089118A11D8A4A7EF18F0A9EF18F00FEF92
:1031500018F080BFB6EF18F0805106E17F05D8B0B7
:10316000B4EF18F0B6EF18F00FEF18F08B51D8B499
:10317000BCEF18F0BEEF18F0C9EF18F08C07D8A01C
:103180008D072A0E8C25D96E010E8D21DA6E8BC02B
:10319000DFFF6BC060F06CC061F02A0E8C25626F9F
:1031A000010E8D21636F81C064F082C065F029EC4F
:1031B00021F012002CC085F02DC086F02EC087F0C3
:1031C0002FC088F075C085F076C086F077C087F094
:1031D00078C088F0810E0001796FFF0E7A6F85C08C
:1031E0007BF086C07CF087C07DF088C07EF0180E32
:1031F000FFEF18F0D8907E337D337C337B33E82E9D
:10320000FAEF18F07B517925836F000E7A21846FD5
:1032100084BF14EF19F0845109E1170E835DD8A023
:1032200014EF19F016EF19F020EF19F075C075F0D2
:1032300076C076F077C077F078C078F0E4EF19F0D8
:1032400084BF25EF19F027EF19F098EF19F083C02C
:1032500079F0FF0E7A6FFF0E7B6F7F0E7C6F000E92
:103260007D6F796736EF19F03EEF19F07D357D33CC
:103270007C337B337A33792F31EF19F07AC07FF0CA
:103280007BC080F07CC081F07DC082F000017F5166
:103290008515796F805186157A6F815187157B6FFF
:1032A000825188157C6F79517A117B117C11D8A4D9
:1032B0005CEF19F05EEF19F060EF19F016EF19F0FE
:1032C00085C079F086C07AF087C07BF088C07CF03A
:1032D000200E70EF19F0D8907C337B337A3379333A
:1032E000E82E6BEF19F079517A117B117C11D8B46B
:1032F0007CEF19F07EEF19F086EF19F07F518527EA
:103300008051862381518723825188237F1D796FC5
:10331000801D7A6F811D7B6F821D7C6F79518517AF
:103320007A5186177B5187177C518817DCEF19F08B
:1033300085C079F086C07AF087C07BF088C07CF0C9
:10334000200EA8EF19F0D8907C337B337A33793391
:10335000E82EA3EF19F079517A117B117C11D8A4D2
:10336000B4EF19F0B6EF19F0C0EF19F0000E856F49
:10337000000E866F000E876F000E886FDCEF19F06D
:10338000D8908535796F86357A6F87357B6F88352C
:103390007C6F79517A117B117C11D8B4D2EF19F07E
:1033A000D4EF19F0DCEF19F0000E856F000E866F78
:1033B000800E876FBF0E886F85C075F086C076F06F
:1033C00087C077F088C078F01200226E2250D8B4FF
:1033D000ECEF19F0EEEF19F010EF1AF01DBEF5EF5B
:1033E00019F0F3EF19F010EF1AF01AC01EF01BC01D
:1033F0001FF01CC020F01DC021F01E1E1F1E201E2D
:10340000211E1E2A000E1F22202221221EC024F06F
:103410001FC025F020C026F021C027F018EF1AF0B9
:103420001AC024F01BC025F01CC026F01DC027F0D8
:103430001A501B101C101D10D8A421EF1AF023EFF6
:103440001AF02DEF1AF0000E1A6E000E1B6E000E11
:103450001C6E000E1D6EBEEF1AF0960E236E37EF37
:103460001AF0232AD8902732263225322432000E31
:1034700024141E6E000E25141F6E000E2614206EDE
:10348000FE0E2714216E1E501F1020102110D8A4EC
:103490004CEF1AF04EEF1AF031EF1AF05CEF1AF021
:1034A000232A010E2426000E252226222722D89028
:1034B0002732263225322432000E24141E6E000ECE
:1034C00025141F6E000E2614206EFF0E2714216E89
:1034D0001E501F1020102110D8A471EF1AF073EFA6
:1034E0001AF050EF1AF07BEF1AF02306D89024362A
:1034F00025362636273626BE80EF1AF082EF1AF0E0
:103500008AEF1AF0020E236088EF1AF08AEF1AF0A1
:1035100075EF1AF023B08FEF1AF091EF1AF092EFD7
:103520001AF0269ED890233223C01EF01F6A206A0C
:10353000216A1EC021F0206A1F6A1E6A1E502412D2
:103540001F50251220502612215027122250D8B485
:10355000ACEF1AF0AEEF1AF0B6EF1AF01DBEB5EFF1
:103560001AF0B3EF1AF0B6EF1AF0278E24C01AF053
:1035700025C01BF026C01CF027C01DF01200000E55
:103580000001616F29BEC9EF1AF0C7EF1AF0DBEF37
:103590001AF0291E281E271E261E251E241E231E45
:1035A000226C000E232224222522262227222822D2
:1035B0002922010E616F21BEE2EF1AF0E0EF1AF04E
:1035C000F4EF1AF0211E201E1F1E1E1E1D1E1C1EA3
:1035D0001B1E1A6C000E1B221C221D221E221F22E3
:1035E00020222122010E611B20EE62F0070EDE6A0E
:1035F000E806FDE222502310241025102610271083
:1036000028102910D8B407EF1BF009EF1BF05BEF6F
:103610001BF0010E606F17EF1BF0D8902236233697
:10362000243625362636273628362936602B29AE0D
:103630001CEF1BF01EEF1BF00DEF1BF0D890623754
:1036400063376437653766376737683769372250BD
:103650001A5C23501B5824501C5825501D582650C6
:103660001E5827501F582850205829502158D8A09C
:103670003CEF1BF03EEF1BF04FEF1BF022501A5EA9
:1036800023501B5A24501C5A25501D5A26501E5A8E
:1036900027501F5A2850205A2950215A6281D89009
:1036A000293228322732263225322432233222325E
:1036B000602F1EEF1BF06151D8B461EF1BF063EF78
:1036C0001BF073EF1BF0691F681F671F661F651FE4
:1036D000641F631F626D000E6323642365236623EA
:1036E00067236823692362C01AF063C01BF064C0BB
:1036F0001CF065C01DF066C01EF067C01FF068C0FA
:1037000020F069C021F01200000E2B6E21BE8DEF5B
:103710001BF08BEF1BF09FEF1BF0211E201E1F1EC6
:103720001E1E1D1E1C1E1B1E1A6C000E1B221C22A0
:103730001D221E221F2220222122010E2B6E29BEB5
:10374000A6EF1BF0A4EF1BF0B6EF1BF0291E281EFE
:10375000271E261E251E241E231E226C000E232239
:103760002422252226222722282229222250231001
:10377000241025102610271028102910D8B4C3EFC4
:103780001BF0C5EF1BF00DEF1CF0010E2A6ED3EFFE
:103790001BF0D89022362336243625362636273697
:1037A000283629362A2A29AED8EF1BF0DAEF1BF08B
:1037B000C9EF1BF022501A5C23501B5824501C5890
:1037C00025501D5826501E5827501F582850205845
:1037D00029502158D8A0EFEF1BF0F1EF1BF001EFBB
:1037E0001CF022501A5E23501B5A24501C5A25509C
:1037F0001D5A26501E5A27501F5A2850205A295009
:10380000215AD890293228322732263225322432C2
:10381000233222322A2EDAEF1BF02B50D8B413EFCA
:103820001CF015EF1CF025EF1CF0211E201E1F1EA2
:103830001E1E1D1E1C1E1B1E1A6C000E1B221C228F
:103840001D221E221F22202221221AC01AF01BC074
:103850001BF01CC01CF01DC01DF01EC01EF01FC0C0
:103860001FF020C020F021C021F01200000E276EB2
:10387000000167BF40EF1CF03EEF1CF04AEF1CF068
:10388000671F661F651F646D000E6523662367232F
:10389000010E276E63BF51EF1CF04FEF1CF05BEF82
:1038A0001CF0631F621F611F606D000E61236223A5
:1038B0006323010E271A000E286E000E296E000EDB
:1038C0002A6E000E2B6E6451651166116711D8B413
:1038D0006CEF1CF06EEF1CF0A4EF1CF0010E266ED6
:1038E00078EF1CF0D8906437653766376737262A3B
:1038F00067AF7DEF1CF07FEF1CF072EF1CF0D890EB
:10390000283629362A362B366451605D6551615957
:103910006651625967516359D8A091EF1CF093EF3B
:103920001CF09CEF1CF06451605F6551615B665157
:10393000625B6751635B2880D89067336633653379
:103940006433262E7FEF1CF02750D8B4AAEF1CF06A
:10395000ACEF1CF0B4EF1CF02B1E2A1E291E286CA5
:10396000000E29222A222B2228C060F029C061F0F3
:103970002AC062F02BC063F012000001A035A1350F
:10398000A76FA751D8A4C7EF1CF0C9EF1CF0D3EF65
:103990001CF0000E9E6F000E9F6F000EA06F000EB9
:1039A000A16F40EF1DF09EC0A2F09FC0A3F0A0C089
:1039B000A4F0A1C0A5F0200EE3EF1CF0D890A53331
:1039C000A433A333A233E82EDEEF1CF0A251A66F7E
:1039D000A08FFF0E9E17FF0E9F17FF0EA017000E61
:1039E000A117960EA75FA7BFFAEF1CF0F8EF1CF027
:1039F00010EF1DF0A751800A970FD8B002EF1DF00D
:103A000004EF1DF006EF1DF0C9EF1CF0D890A133B4
:103A1000A0339F339E33A73F06EF1DF028EF1DF024
:103A20001F0EA76516EF1DF018EF1DF020EF1DF01B
:103A3000C9EF1CF0D8909E379F37A037A137A70752
:103A4000A751D8A426EF1DF028EF1DF01AEF1DF0A6
:103A5000A651D8B42EEF1DF030EF1DF038EF1DF059
:103A6000A11FA01F9F1F9E6D000E9F23A023A123B7
:103A70009EC09EF09FC09FF0A0C0A0F0A1C0A1F08A
:103A80001200000E00018E15966F000E8F15976FB5
:103A9000800E9015986F7F0E9115996F9651971122
:103AA00098119911D8A457EF1DF059EF1DF061EF4F
:103AB0001DF0000E8E6F000E8F6F000E906F000EC7
:103AC000916F000E9215966F000E9315976F800EF2
:103AD0009415986F7F0E9515996F965197119811BF
:103AE0009911D8A476EF1DF078EF1DF080EF1DF04E
:103AF000000E926F000E936F000E946F000E956F84
:103B000091AF85EF1DF087EF1DF090EF1DF08E6DEA
:103B10008F1FD8B08F2B901FD8B0902B800E91574D
:103B200095AF95EF1DF097EF1DF0A0EF1DF0926D92
:103B3000931FD8B0932B941FD8B0942B800E955719
:103B4000000E8E1B000E8F1B000E901B800E911B13
:103B5000000E921B000E931B000E941B800E951BF3
:103B600092518E5D93518F5994519059955191591D
:103B7000D8B0BDEF1DF0BFEF1DF0C2EF1DF0D89023
:103B8000C3EF1DF0D880120030C024F031C025F002
:103B900032C026F033C027F01AC024F01BC025F035
:103BA0001CC026F01DC027F024C01EF025C01FF049
:103BB00026C020F027C021F0180EE4EF1DF0D890A9
:103BC000213220321F321E32E82EDFEF1DF01E5050
:103BD000226E236A22502310D8A4F1EF1DF0F3EFD8
:103BE0001DF013EF1EF0D89024341E6E25341F6E86
:103BF0002634206E2734216E1E501F1020102110F5
:103C0000D8A405EF1EF007EF1EF00DEF1EF0000E1A
:103C10001B6E020E1A6E42EF1EF0000E1B6E030E9C
:103C20001A6E42EF1EF022282310D8A41AEF1EF0BD
:103C30001CEF1EF03EEF1EF024C01EF025C01FF04A
:103C400026C020F027C021F0090ED8901E361F365E
:103C500020362136E82E25EF1EF01E501F102010B2
:103C60002110D8B436EF1EF039EF1EF0010E3AEFF6
:103C70001EF0000E1A6E1B6A42EF1EF0000E1B6E45
:103C8000040E1A6E120074EC26F00009D8B44BEF43
:103C90001EF04DEF1EF08AEF1EF05BEF1EF0EBEC16
:103CA00026F0A6EF1EF0E7EC26F0A6EF1EF0DFEC04
:103CB00026F0A6EF1EF018C10CF019C10DF021EE90
:103CC00009F002D86EEF1EF00500FA6EDE50FD6EB0
:103CD000DE50FE6EDE50FF6EFA5012000E6E0F6A5E
:103CE0000F50000AD8B477EF1EF057EF1EF00E50B9
:103CF000010AD8B457EF1EF0030AD8B44FEF1EF0F4
:103D0000010AD8B453EF1EF0070AD8B457EF1EF0DB
:103D100057EF1EF00101299123C1D9FF24C1DAFF19
:103D2000234B242BDF50EFEC26F001012507D8A010
:103D3000260725512611D8A4A0EF1EF0A2EF1EF0F1
:103D4000A5EF1EF0060EA6EF1EF0030E12001D6E6C
:103D5000010E1E6E010129B5B0EF1EF0B2EF1EF08C
:103D600000EF1FF01DC022F12993298529910E0E25
:103D7000276F010E216FF40E206F29872E0E006F22
:103D80004E0E016F000E026F000E126F000E136FC9
:103D90002E0E036F4E0E046F000E056F000E146F93
:103DA000000E156F2E0E066F4E0E076F000E086F79
:103DB000000E166F000E176F2E0E096F4E0E0A6F53
:103DC000000E0B6F000E186F000E196F2A0E0C6F8D
:103DD0004E0E0D6F000E0E6F000E1A6F000E1B6F51
:103DE000F80E1A6E4D0E1B6E000E1C6EB1EC26F016
:103DF000F9EC26F0E4EC25F0F3EC26F0000E1E6E54
:103E00001E501200000E836E000E846E000E856E32
:103E1000570E886EE40E896ECF0E8A6E830E0F01E8
:103E2000216FA00E196F400E116F000E2D6F000E46
:103E3000186F000E106F000E206F000E0F6F000E37
:103E4000176F000E1F6F0E6916691E690D691569DF
:103E50001D69080E2A6F0A930A950B830B850C9334
:103E60000C95400E1A6E4E0E1B6E000E1C6E95ECDD
:103E700026F03E0E1A6E4E0E1B6E000E1C6E8EEC61
:103E800026F00E01C2890A0E906F120EB76F160E41
:103E9000B56F110EF06F100EFA6F080EFB6F120E59
:103EA000F26F0F0EF96F090EFC6F130EB86F090E4B
:103EB0008F6F12001B6E0E0196BB61EF1FF063EF58
:103EC0001FF0B0EF1FF01B50040D010EF326000E83
:103ED000F422310EF324F66E0F0EF420F76EF86A1A
:103EE000000EF8220800F5CF95FE1B50040D310E90
:103EF000F324F66E0F0EF420F76EF86A000EF82227
:103F00000800F5CF96FE000E976F1B50040D020EB1
:103F1000F326000EF422310EF324F66E0F0EF42079
:103F2000F76EF86A000EF8220800F5CF93FE1B50DA
:103F3000040D030EF326000EF422310EF324F66E68
:103F40000F0EF420F76EF86A000EF8220800F5CF85
:103F50001AF01A4689501A18FD0B1A18896E968B9A
:103F60001200000E1A14226E000E1B14236E800E17
:103F70001C14246E7F0E1D14256E22502310241055
:103F80002510D8A4C6EF1FF0C8EF1FF0D0EF1FF028
:103F9000000E1A6E000E1B6E000E1C6E000E1D6EC3
:103FA000000E1E14226E000E1F14236E800E2014AD
:103FB000246E7F0E2114256E22502310241025100C
:103FC000D8A4E5EF1FF0E7EF1FF0EFEF1FF0000EB2
:103FD0001E6E000E1F6E000E206E000E216E1E5013
:103FE0001A180FE11F501B180CE120501C1809E192
:103FF00021501D18D8B4FFEF1FF001EF20F004EF9F
:1040000020F0D89005EF20F0D880120011EC27F0B6
:1040100023C1D9FF24C1DAFFDF6E0101234B242B1A
:104020002507D8A0260725512611D8B41AEF20F06D
:104030001CEF20F021EF20F005EC27F0050E59EFE2
:1040400020F029872CEF20F0D3EC26F059EF20F058
:10405000D7EC26F059EF20F012C10CF013C10DF08F
:1040600002D83DEF20F00500FA6E0051FD6E0151BF
:10407000FE6E0251FF6EFA5012000E6E0F6A0F5064
:10408000000AD8B446EF20F028EF20F00E50010AC5
:10409000D8B428EF20F0030AD8B424EF20F0010AA6
:1040A000D8B424EF20F0070AD8B428EF20F028EF86
:1040B00020F012001E501F10D8B461EF20F063EF03
:1040C00020F06CEF20F01E501F10D8A46AEF20F0F3
:1040D0006CEF20F071EF20F01C50CAEC26F0A4EF3A
:1040E00020F020EE09F01E50D9261F50DA22DE50B3
:1040F000DE10D8B47EEF20F080EF20F09BEF20F0B0
:1041000020EE09F01E50D9261F50DA2210EE03F0DF
:104110001E50E1261F50E222DE50E65CE650800A87
:10412000246EDE50800A2458D8B099EF20F09BEF1F
:1041300020F0A4EF20F020EE03F01E50D9261F50EF
:10414000DA22DE2A000EDD2212001F6E1A501B102A
:104150001C10D8B4AEEF20F0B0EF20F0CCEF20F080
:104160001F50030D000EF324D96E010EF420DA6EF9
:104170001AC0DEFF1BC0DEFF1CC0DEFF1F50020D99
:10418000120EF324D96E010EF420DA6E1DC0DEFF8C
:104190001EC0DDFFE6EF20F01F50030D000EF324DC
:1041A000D96E010EF420DA6E2E0EDE6E4E0EDE6E2D
:1041B000000EDE6E1F50020D120EF324D96E010E9A
:1041C000F420DA6E000EDE6E000EDD6E1200066E5A
:1041D000015002100310D8B4F0EF20F0F2EF20F0FD
:1041E0000EEF21F00650030D000EF324D96E010EE0
:1041F000F420DA6E01C0DEFF02C0DEFF03C0DEFF86
:104200000650020D120EF324D96E010EF420DA6E60
:1042100004C0DEFF05C0DDFF28EF21F00650030DCE
:10422000000EF324D96E010EF420DA6E2E0EDE6E2F
:104230004E0EDE6E000EDE6E0650020D120EF324E0
:10424000D96E010EF420DA6E000EDE6E000EDD6E09
:104250001200000165BF2FEF21F031EF21F037EFA1
:1042600021F064C069F065C06AF03BEF21F0000EF8
:104270006A6F000E696F000E686F000E676F4EEF79
:1042800021F0000E1D6E200E1C6E60C01EF061C07D
:104290001FF05AEC20F00001674B682B6951675DF5
:1042A0006851800A666F6A51800A6659D8A05BEF30
:1042B00021F05DEF21F041EF21F062C025F063C0F5
:1042C00026F060C027F061C028F0D8EC23F012007F
:1042D0000101298779EF21F0E3EC26F0A6EF21F028
:1042E00002EC27F0030EA6EF21F0DFEC26F0A6EF9C
:1042F00021F012C10CF013C10DF002D88AEF21F0A9
:104300000500FA6E0051FD6E0151FE6E0251FF6E06
:10431000FA5012000E6E0F6A0F50000AD8B493EFD5
:1043200021F075EF21F00E50010AD8B475EF21F09D
:10433000030AD8B46CEF21F0010AD8B46CEF21F075
:10434000070AD8B470EF21F075EF21F01200266E45
:10435000000E276E2650A7EC1EF00009D8B4B3EF6C
:1043600021F0B5EF21F0AAEF21F02E0E206E4A0EBB
:10437000216E000E226E270E236E000E246E12ECAC
:1043800026F0250E1A6E000E1B6E000E1D6E010E1D
:104390001C6EC0EC25F0000E206E000E216E000E8B
:1043A000226E000E236E000E246E20EC26F0CFEC61
:1043B00026F047EC25F0E806D8B4E1EF21F0E3EF72
:1043C00021F0D9EF21F027501200276E2750A7ECDB
:1043D0001EF00009D8B4EFEF21F0F1EF21F0E6EF85
:1043E00021F0CE0E206E490E216E000E226E260E9A
:1043F000236E000E246E12EC26F0250E1A6E000EAF
:104400001B6E000E1D6E010E1C6EC0EC25F0000E22
:10441000206E000E216E000E226E000E236E000E26
:10442000246E20EC26F0CFEC26F047EC25F0E806D1
:10443000D8B41DEF22F01FEF22F015EF22F012008A
:10444000FFEC26F0010129A128EF22F02AEF22F04B
:1044500037EF22F074EC26F00009D8B432EF22F0E6
:1044600034EF22F037EF22F00F0E0101276F010128
:104470002751030D010EF324F66E0F0EF420F76E94
:10448000F86A000EF82202D853EF22F00500FA6E07
:104490000900F550FD6E0900F550FE6E0900F5505B
:1044A000FF6EFA5012000101276F120001012991DD
:1044B000020E286F64EF22F0E3EC26F08BEF22F07F
:1044C000DFEC26F08BEF22F016C10CF017C10DF0D7
:1044D00021EE06F002D877EF22F00500FA6EDE50EA
:1044E000FD6EDE50FE6EDE50FF6EFA5012000E6E54
:1044F0000F6A0F50000AD8B480EF22F060EF22F06C
:104500000E50020AD8B45CEF22F0010AD8B45CEF76
:1045100022F060EF22F01200000E226E000E236ED9
:10452000000E246E000E256E1AA099EF22F09BEF6C
:1045300022F0A3EF22F01E5022261F5023222050EB
:10454000242221502522D8901E361F3620362136AF
:10455000D8901D321C321B321A321A501B101C10FC
:104560001D10D8A4B6EF22F0B8EF22F094EF22F09D
:1045700022C01AF023C01BF024C01CF025C01DF07F
:1045800012001DBED0EF22F01D501C101B1006E1C2
:104590001A04D8B0CEEF22F0D0EF22F0EBEF22F0E9
:1045A0001AC01EF01BC01FF01CC020F01DC021F05F
:1045B0001E1E1F1E201E211E1E2A000E1F2220222C
:1045C00021221EC01AF01FC01BF020C01CF021C009
:1045D0001DF0F3EF22F01AC01AF01BC01BF01CC034
:1045E0001CF01DC01DF01200E7C0EBF0E8C0ECF0BD
:1045F00009EF23F0E5C0DDF0E6C0DEF0EB0E0001D0
:10460000DF6F000EE06FE9C0E1F0EAC0E2F009EC14
:1046100016F0EBC0F6FFECC0F7FF000EF86E0800D6
:10462000F5500009D8A417EF23F019EF23F0FAEFA3
:1046300022F0000E0001E66F000EE56F12001CC0B4
:1046400023F01DC024F01AC021F01BC022F039EF66
:1046500023F023C0D9FF24C0DAFFDF50206E234AA5
:10466000242A21C0D9FF22C0DAFF20C0DFFF214A5F
:10467000222A1E06D8A01F061E2806E11F28D8A43D
:1046800044EF23F046EF23F029EF23F012003A0E17
:10469000F66E4E0EF76E000EF86E0900F5CFFDF0C7
:1046A0000900F5CFFEF00900F5CFFFF001EE00F0B4
:1046B0007A0EEE6AE806FDE100EEEFF00E0EEE6A0D
:1046C000E806FDE100EE2CF0140EEE6AE806FDE1CE
:1046D000469046920001BDEF0CF0080E9F6E900EC2
:1046E0009D6E240E9E6E670E9B6E000E9C6E000EDD
:1046F0001A6E000E1B6E000E1C6EA3EC26F0000E50
:104700001A6E000E1B6E000E1C6E9CEC26F0000E46
:104710001A6E000E1B6E000E1C6EAAEC26F0000E28
:104720003F6E1200000E0001A21B000EA31B000E24
:10473000A41B800EA51B9EC08EF09FC08FF0A0C052
:1047400090F0A1C091F0A2C092F0A3C093F0A4C0D9
:1047500094F0A5C095F0C4EC0FF08EC09EF08FC011
:104760009FF090C0A0F091C0A1F012001CC01EF0FC
:104770001DC01FF01AC020F01BC021F01EC0F6FFA4
:104780001FC0F7FF1E4A1F2A000EF86E20C0D9FF77
:1047900021C0DAFF204A212A0800F5CFDFFFDF50D1
:1047A000D8A4D5EF23F0D7EF23F0BEEF23F012000B
:1047B000000E2B6E000E2A6EE9EF23F029C01CF0CC
:1047C0001D6A27C01EF028C01FF05AEC20F02A4AAC
:1047D0002B2A2A502524D96E2B502620DA6EDF5042
:1047E000296E2950D8A4F7EF23F0F9EF23F0DEEF7C
:1047F00023F0120020EE02F00C50D9260D50DA22E0
:10480000DECF01F0DDCF02F00CC0D9FF0DC0DAFF22
:10481000DECF03F0DDCF04F0D2EC25F0000E076E02
:10482000000E086E000E096E000E0A6E000E0B6E72
:104830002EEC26F0020E1200000161BF2AEF24F0D8
:10484000615106E16005D8B028EF24F02AEF24F08A
:1048500038EF24F060C062F061C063F0621F631F34
:10486000624B632B62C060F063C061F03CEF24F0E8
:1048700060C060F061C061F012001A6E010E1B6E24
:10488000010129B346EF24F048EF24F05BEF24F058
:104890002983000E1B6E1A50D8B451EF24F053EF49
:1048A00024F057EF24F0010E276F59EF24F0020E89
:1048B000276F0DEC27F01B501200070E016E7D0EC6
:1048C000E82EFED7012EFCD700F08DA26AEF24F06F
:1048D0006CEF24F06EEF24F07BEF24F00001FD2953
:1048E000FD6F020EFD6577EF24F079EF24F07BEF8A
:1048F00024F0010EFD6F12001A501B101C101D1029
:10490000D8B485EF24F087EF24F08FEF24F0000E69
:104910001A1A000E1B1A000E1C1A800E1D1A1AC03D
:104920001AF01BC01BF01CC01CF01DC01DF01200B3
:1049300068C06AF069C06BF00001D8906B336A33CD
:10494000D8906B336A336A51A16E68C06AF0030E67
:104950006A17060E6B6FD8906A376B2FABEF24F097
:104960006A51A06E1200405041104210D8B4BBEF03
:1049700024F0BDEF24F0CAEF24F002D8CAEF24F0EF
:104980000500FA6E4050FD6E4150FE6E4250FF6EC3
:10499000FA5012000F010A951200435044104510BE
:1049A000D8B4D5EF24F0D7EF24F0E4EF24F002D808
:1049B000E4EF24F00500FA6E4350FD6E4450FE6EA5
:1049C0004550FF6EFA5012000F010A9312000CC0FE
:1049D00001F00DC002F0000E046E010E036ED2EC69
:1049E00025F0000E076E000E086E000E096E000E18
:1049F0000A6E000E0B6E2EEC26F0040E12000CC098
:104A000001F00DC002F0000E046E020E036ED2EC37
:104A100025F0000E076E000E086E000E096E000EE7
:104A20000A6E000E0B6E2EEC26F0020E12000CC069
:104A300001F00DC002F0000E046E010E036ED2EC08
:104A400025F0000E076E000E086E000E096E000EB7
:104A50000A6E000E0B6E2EEC26F0020E12000CC039
:104A600001F00DC002F0000E046E020E036ED2ECD7
:104A700025F0000E076E000E086E000E096E000E87
:104A80000A6E000E0B6E2EEC26F0040E1200010EC4
:104A90001A6E010129B34FEF25F051EF25F05BEFBE
:104AA00025F029952269F9EC26F0F6EC26F00FECBA
:104AB00027F028C11AF01A5012000E01CDAB63EF97
:104AC00025F065EF25F05DEF25F0000E3F6E9DA20D
:104AD0006CEF25F06EEF25F070EF25F09D989D8826
:104AE000995012000F010AA378EF25F07AEF25F014
:104AF0007CEF25F0CDEC24F00F010AA582EF25F024
:104B000084EF25F086EF25F0B3EC24F01200870E39
:104B10000001ED6F010EEE6F000EE56F000EE66F07
:104B200085C1E7F086C1E8F0ED0EE96F000EEA6F8F
:104B3000F4EC22F012000BEC27F004EC26F06AEC07
:104B400026F0AEEC25F002EC1FF048EC26F054EC19
:104B500026F0F5EC25F06DEC23F01200090E0E01A5
:104B60008F6F0A0E906F110EF06F120EF26FC00E63
:104B7000956F120E966F010E936F8992969B12009D
:104B8000010129A7C6EF25F0C8EF25F0D1EF25F0E8
:104B90001AC023F11BC024F11CC025F11DC026F151
:104BA00029971200010129A7D8EF25F0DAEF25F0A7
:104BB000E3EF25F001C023F102C024F103C025F189
:104BC00004C026F12997120096BAE9EF25F0EBEF21
:104BD00025F0F4EF25F0000E956E080E966E000E8F
:104BE000976E090E936E968A1200010EBF6E000E2C
:104BF000BE6E000EC06E070EBC6E000EBB6E0E01C8
:104C0000CE93A30EBD6E1200000E0E01E16F000EDA
:104C1000E26F000EE36F000EE46F000EE56F000E12
:104C2000E66F120020C01AF021C01BF022C01CF059
:104C300023C01DF024C01EF0000EA5EC20F01200D1
:104C400020C01AF021C01BF022C01CF023C01DF0B0
:104C500024C01EF0020EA5EC20F0120007C001F0E7
:104C600008C002F009C003F00AC004F00BC005F050
:104C7000000EE7EC20F012001A6E0E01CDA943EFF2
:104C800026F045EF26F03DEF26F01AC09AFF1200FD
:104C9000600E0E01D86F000EDA6F000EDC6F020E90
:104CA000DE6F000EDD6F1200800EA26E070EA16E89
:104CB000C00EA06EAE503F0B4009AE6E12000E014A
:104CC000CDBB65EF26F068EF26F0010E69EF26F008
:104CD000000E1200000E956E080E966E000E976E76
:104CE000090E936E969A120097BC79EF26F07CEF2E
:104CF00026F0010E7DEF26F0000E12000101298141
:104D000022512225EFEC26F0030E12000101298129
:104D1000D8802235EFEC26F0050E12001AC040F0C4
:104D20001BC041F01CC042F012001AC043F01BC06F
:104D300044F01CC045F012001AC096F11BC097F158
:104D40001CC098F112001AC099F11BC09AF11CC046
:104D50009BF112001AC093F11BC094F11CC095F195
:104D600012001AC038F01BC039F01CC03AF0120013
:104D700001012993000E286F0E0E120001012991E6
:104D800013EC27F0040E120001012993000E286F86
:104D90000E0E12001B6E1B503CEC26F01200000E93
:104DA0003DEC24F0120008EC27F0090E120008EC8C
:104DB00027F00A0E120005EC27F0050E120019EC80
:104DC00027F0000E12001BEC27F0010E12001BEC66
:104DD00027F0020E12001BEC27F0010E1200016EEC
:104DE00001C092FF12000E01C58112000E01C59193
:104DF00012000E01CD91120020EC22F012000E01E3
:104E0000CD9112000E01CD811200979A9788120061
:104E1000978A97881200F29A120097801200969A49
:104E200012009250120097861200050E1200010E19
:0D4E30001200978412009782120001651491
:044E3E00120012004C
:020000040020DA
:10000000FF0FFF0FFF0FFF0FFF0FFF0FFF0FFF0F80
:020000040030CA
:0C0000008CFFFFFF9FFFFFFFFFFFFFFFD3
:00000001FF
